:020000040800F2
:10000000E8060020450100082D110008B70D000882
:1000100029110008650B0008E11F0008000000001E
:100020000000000000000000000000007918000837
:10003000A90B000800000000CD1300086519000896
:100040005F0100085F0100085F0100085F01000810
:100050005F0100085F0100085F010008AB0B0008AA
:100060005F0100085F0100085F0100085F010008F0
:100070005F0100085F0100085F0100085F010008E0
:100080005F0100085F0100085F0100085F010008D0
:100090005F0100085F0100085F0100085F010008C0
:1000A0005F0100085F0100085F0100085F010008B0
:1000B0005F0100085F010008C91900085F0100081E
:1000C0005F0100085F0100085F0100085F01000890
:1000D0005F010008D91C00085D1D00085F010008D1
:1000E0005F0100085F0100085F0100085F01000870
:1000F0005F0100085F0100085F0100085F01000860
:100100005F0100085F0100085F0100085F0100084F
:100110005F0100085F0100085F0100085F0100083F
:100120005F0100085F0100085F0100085F0100082F
:10013000DFF80CD000F0D4FA004800472D3000085A
:10014000E80600200648804706480047FEE7FEE72D
:10015000FEE7FEE7FEE7FEE7FEE7FEE7FEE7FEE777
:100160006919000831010008F0B480EA0102D40FD7
:100170004200B2EB410F02D20246084611464A0045
:1001800042D0C30DDDB2C1F3C752AD1A202D35DA0E
:10019000C1F3160141F4000204B15242C5F1200638
:1001A00002FA06F12A411044B3EBD05F23D0C4B168
:1001B000012DA0EBC35009DCF0BC4FF0004202EA75
:1001C000C352DBB200F5000000F0F2B9400000F1CC
:1001D000807000EBC350A0F1807040EAD1704900FC
:1001E00009E0490841EAC071A0EBC35000F50000E6
:1001F000400800EBC350F0BC00F0D1B961420122CD
:1002000002EB4101001BF6E7F0BC704781F00041B2
:10021000AAE780F00040A7E780EA010210B502F0EB
:100220000043400022D04A001FD0010E01EB1261B2
:10023000C0F35600C2F3560240F4000042F400023C
:10024000A0FB022000047F39140400D0401C50EAB7
:10025000124001D44000491EC2B20C0604EBD0107B
:10026000401C4008802A02D003E0002010BD20F08E
:100270000100002900DA0020184310BD30B480EAE4
:10028000010202F0004530F0004221F0004013D09E
:1002900090B1C30DD40DC2F31601C0F31600E41AD9
:1002A00041F4000140F400027D34914201D3641C0A
:1002B00000E04900002C02DA30BC002070474FF407
:1002C00000000023914201D3891A034340084FEAFA
:1002D0004101F7D151B1914202D14FF0004105E007
:1002E00002D24FF0010101E06FF0010103EBC450B5
:1002F000284430BC00F053B92DE9FE4F81EA0304D5
:1003000004F0004421F0004100944FF0000B23F072
:10031000004350EA01045ED052EA03045BD0C3F309
:100320000A54C1F30A552C44A4F2F3340194A0FBFF
:100330000254C1F3130141F48011C3F3130343F4D6
:10034000801301FB024400FB034E840A970A44EA2F
:10035000815447EA8357A4FB076802958D0A05FB81
:1003600007854FEA932C04FB0C542705029D4FEAA6
:10037000065847EA1637B5EB08056EEB070C870EF3
:10038000920E47EA811742EA8312A7FB0201B6EBFD
:100390000B0164EB00042B0D43EA0C335E1844EBB5
:1003A0001C50DA465146E7FB0201C5F313044FEA3D
:1003B0000B3343EA14534FEA0432019C43EA060329
:1003C000A4F10C040294009CCDE900B400F039F9CA
:1003D00003B0BDE8F08F00200146F9E72DE9F04DAC
:1003E00081EA030404F0004B21F0004514464FF06D
:1003F000000A23F0004150EA050220D054EA01022D
:100400001DD0C5F30A570246C5F31303C1F3130009
:10041000C1F30A5640F4801543F48013A7EB060895
:10042000101BD64608F2FD3873EB050002D308F125
:10043000010801E092185B41B8F1000F03DA0020D7
:100440000146BDE8F08D00204FF480110646844639
:100450000EE0171B73EB050705D3121B63EB0503B7
:1004600006434CEA010C49084FEA300092185B4100
:1004700050EA0107EDD152EA030012D082EA0400EB
:1004800083EA0501084305D0101BAB4106D20122C7
:10049000002306E000224FF0004302E06FF001026B
:1004A00053101AEB06004CEB085110EB0A0041EB1D
:1004B0000B01BDE8F04D00F0B5B8C10F80EAE07067
:1004C0000844CA079623002100F072B80EB5C10F88
:1004D00080EAE0700844CA07002140F233438DE807
:1004E0000E000A460B4600F0ACF803B000BD00F069
:1004F000004220F00040C10DC0F3160040F400009F
:100500007F2901DA00207047962903DCC1F19601AA
:10051000C84001E096398840002AF4D04042704734
:1005200001F0004330B421F0004150EA010206D04E
:100530000A0DA2F56072C1F31301002A02DC30BC7F
:1005400000207047440F44EAC104C100E01830BCE9
:1005500000EBC25000F023B8002801DBC0F10040DE
:10056000002901DBC1F1004181427047002801DB15
:10057000C0F10040002901DBC1F100418842704711
:10058000202A04DB203A00FA02F100207047914053
:10059000C2F1200320FA03F3194390407047002969
:1005A000A8BF7047401C490008BF20F001007047F9
:1005B00010B4B0FA80FC00FA0CF050EA010404BF59
:1005C00010BC704749B1CCF1200421FA04F411FAAF
:1005D0000CF118BF012121430843A3EB0C01CB1DF3
:1005E0004FEA00614FEA102042BF002010BC704764
:1005F00000EBC35010440029A4BF10BC7047401C3E
:10060000490008BF20F0010010BC7047420005D02F
:10061000C0F3C7525242914201DC0020704700EB08
:10062000C150704710B5141E73F1000408DA401C65
:1006300041F1000192185B411A4301D120F0010001
:1006400010BD2DE9F04D92469B4611B1B1FA81F2F1
:1006500002E0B0FA80F220329046FFF791FF0446A4
:100660000F4640EA0A0041EA0B0153465A46084346
:1006700013D0114653EA010019D0C8F14002504688
:1006800000F040F805460E46504659464246FFF7F0
:1006900077FF084305D0012004E020463946BDE835
:1006A000F08D0020054346EAE0762C4337430A9854
:1006B0006305E40AA0EB08000022FD0A44EA47545F
:1006C0000A3002D500200146E9E701051019694109
:1006D000DDE9084500196941BDE8F04DA2E70000D9
:1006E000064C074D06E0E06840F0010394E807007F
:1006F00098471034AC42F6D3FFF71EFD503B00087C
:10070000703B0008202A04DB203A21FA02F0002185
:10071000704721FA02F3D040C2F120029140084311
:1007200019467047F0B4002802DCF0BC0020704786
:10073000C0F3C751C0F3160040F40000CA0701D14E
:100740004000491E3F2202EB6105002211464FF492
:10075000000626FA01F31344D418844201D8001B82
:100760001A464000491C1729F3DD5100814202D28C
:100770004FF0FF3100E0002102EBC550F0BCFFF765
:100780000EBF0000024908600249C1F8B00170477D
:100790009C0121420080214200B589B001210D2039
:1007A00000F042FE4020ADF8040018208DF807004C
:1007B00003208DF8060001A9494800F0F7F94FF42D
:1007C0000060ADF8040018208DF8070003208DF8B4
:1007D000060001A9424800F0E9F90121022000F0D9
:1007E00003FE41F61F40ADF81C000920ADF81800CB
:1007F0000020ADF81E00ADF81A0006A9394801F036
:1008000019FA6020ADF808000120ADF80A000020B8
:10081000ADF810004FF46160ADF80E0002A9314848
:1008200001F066F908212F4801F0AEF902A92D4820
:1008300001F0B4F908212B4801F0EEF90121294813
:1008400001F012F90121274801F01DF90121C80228
:1008500000F0EAFD41F61F40ADF81C000920ADF89C
:1008600018000020ADF81E00ADF81A0006A91E48B9
:1008700001F0E0F96020ADF808000120ADF80A00B1
:100880000020ADF810004FF46160ADF80E0002A931
:10089000154801F083F90821134801F0BDF9012141
:1008A000114801F0E1F801210F4801F0F8F80121A9
:1008B0000D4801F0E8F80521412000F07BFB002104
:1008C000422000F077FB0721412000F073FB0C2150
:1008D000422000F06FFB0120FFF754FF09B000BD7C
:1008E0000008014000040040002C014021B1826852
:1008F00042F00102826003E0826822F0010282601D
:100900007047000010B504461248844208D1012106
:10091000401500F099FD0021601500F095FD17E0ED
:100920000D48844208D10121001500F08DFD002101
:10093000201500F089FD0BE00848844208D1012110
:10094000C80300F081FD00214FF4004000F07CFD61
:1009500010BD00000024014000280140003C01407F
:10096000014600208A6802F004020AB1012000E07A
:10097000002070470146C86C80B2704702460020D4
:1009800013680B400BB1012000E0002070470146C6
:1009900000208A6802F008020AB1012000E000206D
:1009A0007047000030B502460020002350680F4C0D
:1009B00020400D790C6844EA05242043506090687B
:1009C0000B4C2040D1E902542C434D7944EA4504B4
:1009D00020439060D06A20F470000C7C641EE4B266
:1009E000234340EA0350D06230BD0000FFFEF0FF19
:1009F000FDF7F1FFF0B504460D4600200021092D5A
:100A000011DDE068A5F10A0606EB4607072606FA9F
:100A100007F18843A5F10A0606EB460603FA06F13C
:100A20000843E0600CE0206905EB4507072606FA5D
:100A300007F1884305EB450603FA06F108432061F8
:100A4000072A0FDA606B561E06EB86071F2606FA8A
:100A500007F18843561E06EB860605FA06F10843A1
:100A6000606322E00D2A0FDA206BD61F06EB8607A3
:100A70001F2606FA07F18843D61F06EB860605FAFD
:100A800006F10843206310E0E06AA2F10D0606EBD0
:100A900086071F2606FA07F18843A2F10D0606EB2A
:100AA000860605FA06F10843E062F0BD816841F070
:100AB00008018160704721B1826842F4A00282601F
:100AC00003E0826822F4A00282607047816841F0EE
:100AD000040181607047000000B587B001214FF428
:100AE000017000F0A1FC4FF4004000F071FC012007
:100AF000ADF8040000208DF8070001A9174800F0A8
:100B000055F81748FFF7FEFE002002908DF80C0004
:100B10008DF80D004FF46020049000200590012016
:100B20008DF8180002A90E48FFF73CFF01210C4880
:100B3000FFF7DCFE0A48FFF7B9FF00BF0848FFF7E0
:100B400026FF0028FAD10648FFF7C0FF00BF04487F
:100B5000FFF706FF0028FAD107B000BD00080140EA
:100B60000024014000BFFEE70021074A11605160E8
:100B7000002006E000220449103141F82020411CE9
:100B8000C8B21428F6DB7047A001002010B5024659
:100B90000B460020002104E0545C0444E0B24C1CED
:100BA000A1B29942F8DB10BD704770472DE9F041C2
:100BB000024600250026002000230024002791F88B
:100BC00003C00CF00F0591F803C00CF0100CBCF141
:100BD000000F03D091F802C04CEA050591F800C05F
:100BE000BCF1000F31D0146800202BE04FF0010C55
:100BF0000CFA00F3B1F800C00CEA03069E4220D1C3
:100C000083004FF00F0C0CFA03F7BC4305FA03FC0A
:100C10004CEA040491F803C0BCF1280F06D14FF050
:100C2000010C0CFA00FCC2F814C00AE091F803C0F1
:100C3000BCF1480F05D14FF0010C0CFA00FCC2F8D2
:100C400010C0401C0828D1D31460B1F800C0BCF11A
:100C5000FF0F34DD546800202EE000F1080C4FF047
:100C6000010808FA0CF3B1F800C00CEA03069E4232
:100C700021D183004FF00F0C0CFA03F7BC4305FAA7
:100C800003FC4CEA040491F803C0BCF1280F05D121
:100C900000F1080C08FA0CF8C2F8148091F803C0AF
:100CA000BCF1480F07D100F1080C4FF0010808FA19
:100CB0000CF8C2F81080401C0828CED35460BDE860
:100CC000F0810000F0B50A46002300240021002531
:100CD00000F00046B6F1004F02D11D4EF16901E06F
:100CE0001B4E7168C0F3034583B200F44016B6F59D
:100CF000401F08D121F07061154E766826F07066AD
:100D0000134F7E6012E000F48016B6F5801F06D106
:100D1000032606FA05F4A14341F0706106E0460D92
:100D2000360103FA06F6B14341F0706122B1460D77
:100D3000360103FA06F6314300F00046B6F1004FE3
:100D400002D1034EF16101E0014E7160F0BD00007F
:100D5000000001400161704710B5044607230122DD
:100D600021460948FFF746FE01210748FFF7A3FE89
:100D700000BF02210448FFF701FE0028F9D0024815
:100D8000FFF7F8FD10BD0000002401402DE9F041FF
:100D900007460C460026002500BF05E03846FFF751
:100DA000DBFF0544701CC6B2A642F7DBB5FBF4F5C9
:100DB000A8B2BDE8F08100BFFEE721B1028842F48D
:100DC0008062028004E002884FF6FF331A400280FE
:100DD000704770B502460024002500230020958A44
:100DE000138B1B0445EA030626F07F4404EA010640
:100DF0008E4201D1012000E0002070BD21B10288A7
:100E000042F00102028004E002884FF6FE731A40AD
:100E10000280704710B504460B48844209D1012175
:100E2000480500F0F1FA00214FF4001000F0ECFA50
:100E300008E00121880500F0E7FA00214FF4800066
:100E400000F0E2FA10BD00000054004021B1028819
:100E500042F48072028004E002884FF6FF631A4079
:100E60000280704721B1028842F40072028004E0DF
:100E700002884FF6FF531A40028070472DE9F04375
:100E800085B004460D460026B1460427DFF8CC8025
:100E9000A6884FF6C0700640684600F0E5FADDF817
:100EA00008802F48B8FBF0F01FFA80F946EA0906DF
:100EB000A68020884FF6FE71084020800026294930
:100EC000286888420CD828684000B8FBF0F087B248
:100ED000042F00DA04273E4309F10100208427E0B3
:100EE000E8884BF6FF71884206D1286800EB400085
:100EF000B8FBF0F087B209E0286800EBC00101EB15
:100F00000010B8FBF0F087B247F48047C7F30B003E
:100F100008B947F0010747F4004006434FF49670C4
:100F200009FB00F04FF47A7190FBF1F0401C208433
:100F3000A683208840F00100208026884FF6F530F7
:100F40000640A8886989084306432680A88929891C
:100F50000843208105B0BDE8F083000000127A004C
:100F600040420F00A08601000146088AC0B27047C7
:100F700012B141F0010102E04FF6FE731940018207
:100F8000704701827047000008B50121042000F07D
:100F90004BFA0220ADF8000001208DF80200482035
:100FA0008DF8030069460248FFF700FE08BD000007
:100FB0000008014038B504460D460121084600F0FE
:100FC00033FA01215248FFF77DFEA4F141000528C4
:100FD0001DD2DFE800F003080D12170001210420E4
:100FE00000F022FA13E00121082000F01DFA0EE0C3
:100FF0000121102000F018FA09E00121202000F062
:1010000013FA04E00121402000F00EFA00BF00BFF7
:10101000102D51D2DFE805F0080C1014181C202404
:10102000282D32373C41464B0120ADF8000043E00B
:101030000220ADF800003FE00420ADF800003BE0E6
:101040000820ADF8000037E01020ADF8000033E0D4
:101050002020ADF800002FE04020ADF800002BE08C
:101060008020ADF8000027E04FF48070ADF800005C
:1010700022E04FF40070ADF800001DE04FF48060F6
:10108000ADF8000018E04FF40060ADF8000013E088
:101090004FF48050ADF800000EE04FF40050ADF872
:1010A000000009E04FF48040ADF8000004E04FF488
:1010B0000040ADF8000000BF00BF10208DF8030015
:1010C00003208DF80200A4F1410005281DD2DFE8BD
:1010D00000F003080D12170069460E48FFF766FD81
:1010E00013E069460C48FFF761FD0EE069460B48C6
:1010F000FFF75CFD09E069460948FFF757FD04E08A
:1011000069460848FFF752FD00BF00BF38BD000028
:101110000002300000080140000C014000100140B6
:10112000001401400018014000BFFEE770470000B6
:101130001FB510A103C9CDE90201052202A9302083
:1011400000F0BCF805226946102000F065F8002484
:1011500006E01DF80400A52800D003E0601CC4B21E
:10116000052CF6DB00BF052C02D0012004B010BD19
:101170000020FBE7A5A5A5A5A500000008B5012155
:10118000084600F051F901212048FFF79BFD01219D
:101190000C2000F049F910208DF8030003208DF891
:1011A00002004FF40040ADF8000069461848FFF710
:1011B000FDFC4FF40040ADF8000069461548FFF70C
:1011C000F5FC4FF40040124910310860114910310C
:1011D000086048208DF8030003208DF80200881570
:1011E000ADF8000069460B48FFF7E0FC4FF4807152
:1011F0000848FFF7AFFD00F099FA4FF400400449AA
:101200001431086003491031086008BD0002300045
:10121000000C0140000801402DE9F04107460D4651
:1012200016464FF400400C490860384600F008FBB1
:101230008046002405E0FF2000F002FB2855601CDA
:10124000C4B2B442F7DB4FF400400349091F086001
:101250004046BDE8F08100001408014070B5044626
:101260004FF4004007490860204600F0E9FAFF20EB
:1012700000F0E6FA05464FF400400249091F0860F5
:10128000284670BD1408014070B504460720FFF7DA
:10129000E5FF05462946272000F032F805F040001A
:1012A00050B1202221466120FFF7B6FFFF21E22046
:1012B00000F026F8002070BD0120FCE72DE9F04188
:1012C00007460C4615464FF400400C490860384666
:1012D00000F0B6FA8046002605E014F8010B00F095
:1012E000AFFA701CC6B2AE42F7DB4FF400400349C0
:1012F000091F08604046BDE8F08100001408014065
:1013000070B505460C464FF4004008490860284671
:1013100000F096FA0646204600F092FA4FF400409C
:101320000249091F0860304670BD000014080140E2
:1013300010B5FFF723FF00BF00F0C0F9FFF7F8FE7C
:101340000128F9D010BD000070B5002100230F2244
:10135000C47804B3154C246804F4E064C4F5E06474
:10136000210AC1F10403CA40447804FA03F18478E5
:101370001440214309010E4C0678A155047804F06D
:101380001F050124AC4005786D11AD0005F1E02585
:10139000C5F8004109E0047804F01F050124AC40C1
:1013A000044D0678761145F8264070BD0CED00E03E
:1013B00000E400E080E100E002490143024A1160DC
:1013C000704700000000FA050CED00E070470000D7
:1013D00001460020034A506820F440400843506012
:1013E000704700000010024029B1064AD26902434A
:1013F000044BDA6104E0034AD2698243014BDA61AB
:10140000704700000010024029B1064A12690243E9
:10141000044B1A6104E0034A12698243014B1A61CA
:10142000704700000010024029B1064A9269024349
:10143000044B9A6104E0034A92698243014B9A612A
:10144000704700000010024029B1064AD2680243EA
:10145000044BDA6004E0034AD2688243014BDA604D
:10146000704700000010024030B500210022002427
:1014700000232D4D6D6805F00C0121B1042905D024
:10148000082923D105E0294D056022E0274D05609C
:101490001FE0254D6D6805F47012234D6D6805F44D
:1014A0008034022505EB92421CB9214D554305605D
:1014B0000BE01D4D6D6805F400351DB11C4D554305
:1014C000056002E0194D5543056002E0174D0560C7
:1014D00000BF00BF144D6D6805F0F0010909154DFE
:1014E0006B5C0568DD4045600F4D6D6805F4E0619B
:1014F000090A104D6B5C4568DD4085600A4D6D68DA
:1015000005F46051C90A0B4D6B5C4568DD40C56050
:10151000054D6D6805F44041890B074D6B5CC5684E
:10152000B5FBF3F5056130BD0010024000127A00F2
:1015300000093D00B6000020C60000202DE9F04162
:101540005648FFF7A1FE00287DD1002554490880A8
:10155000002405E05148005D2844C5B2601CC4B2B7
:101560001F2CF7DB4D48C07FA8426DD14B48007857
:10157000AA2869D149484078AF287CD147484079AA
:101580004649097940EA0120464908804348C07924
:101590004249897940EA0120424948803F48407ADF
:1015A0003E49097A40EA01203E4988803B48C07A9A
:1015B0003A49897A40EA01203A49C8803748407B55
:1015C0003649097B40EA0120364908813348C07B0F
:1015D0003249897B40EA0120324948812F48407CCA
:1015E0002E49097C40EA01202E4988812B48C07C85
:1015F0002A49897C40EA01202A49C8812A4E498823
:1016000040F2DC52501AFEF758FF07463146FEF70B
:1016100003FE264908602349098840F2DC52501A2B
:10162000FEF74BFF07463146FEF7F6FD20490860FE
:101630001C48C08840F21C7188420BDD1D490868B7
:101640004FF07D5101E017E015E0FEF78DFD1949DF
:1016500008600DE01348C08840F29C41884207DAD8
:10166000144908684FF07D51FEF7D0FD114908601C
:101670000020BDE8F0810FE009480088401C0849BF
:10168000088008460088B0F5487F05DD0020088006
:1016900009490870FFF74CFE0120EAE7B502002077
:1016A0009E000020000200200AD7233D10020020E7
:1016B00044020020780200209400002010B54FF46E
:1016C000004012490860052211492A20FFF7F6FD63
:1016D00001212120FFF714FE01212220FFF710FE37
:1016E0002D212520FFF70CFE20213120FFF708FED9
:1016F0000F212620FFF704FE0F212020FFF700FE18
:101700004FF400400149091F086010BD140C01404E
:10171000493B000821B1028842F04002028004E007
:1017200002884FF6BF731A400280704700B587B039
:1017300001210C20FFF778FE01210820FFF774FE3D
:1017400001210846FFF770FE01210803FFF76CFE38
:1017500001212148FFF7B6FA01210846FFF7B2FA46
:101760004FF400411D48FFF7F5FA3820ADF80400AA
:1017700003208DF8060018208DF8070001A91848ED
:10178000FFF714FA00211748FFF7C4FF0020ADF857
:1017900008004FF48270ADF80A000020ADF80C008C
:1017A000ADF80E00ADF810004FF40070ADF8120067
:1017B0001020ADF814000020ADF816000720ADF899
:1017C000180002A9074800F01DF801210548FFF79D
:1017D000A1FF07B000BD000000023000000801407A
:1017E000000C0140003001400246002013890B40EC
:1017F0000BB1012000E00020704701468889704746
:101800008181704710B50022028802F441520B8892
:101810004C8823438C882343CC8823430C8923435F
:101820004C8923438C892343CC8923431A43028068
:10183000838B4FF2FF74234083830B8A038210BD96
:1018400010B5044600BF02210A48FFF7CDFF00286B
:10185000F9D021460748FFF7D3FF00BF0121054813
:10186000FFF7C2FF0028F9D00248FFF7C6FFC0B259
:1018700010BD000000300140704710B500F002F8C4
:1018800010BD00000CB500200190009033480068A6
:1018900040F480303149086000BF3048006800F4EF
:1018A000003000900198401C0190009818B90198F0
:1018B000B0F5A06FF1D12948006800F4003010B1F4
:1018C0000120009001E0002000900098012843D101
:1018D0002348006840F0100021490860084600686D
:1018E00020F0030008600846006840F0020008602D
:1018F0001A484068194948600846406848600846E8
:10190000406840F4806048600846406820F47C10DD
:1019100048600846406840F4E8104860084600689F
:1019200040F08070086000BF0C48006800F0007054
:101930000028F9D00948406820F0030007494860B2
:101940000846406840F00200486000BF0348406815
:1019500000F00C000828F9D10CBD00000010024076
:10196000002002407047000010B51348006840F0A6
:1019700001001149086008464068104908400E49B6
:101980004860084600680E4908400B490860084650
:10199000006820F4802008600846406820F4FE00BB
:1019A00048604FF41F008860FFF767FF4FF000604A
:1019B0000449086010BD0000001002400000FFF85C
:1019C000FFFFF6FE08ED00E010B501210B4800F026
:1019D00075F888B10121094800F052F808480068FC
:1019E000401C07490860084600680A2804D3002004
:1019F000086001200349087010BD00000008004085
:101A0000A4000020A80000207FB505460C46012157
:101A10000420FFF7E9FCA8B2ADF80800ADF80440D7
:101A20000020ADF80A00ADF8060001A90D4800F04D
:101A300001F9012211460B4800F051F81E208DF8E3
:101A4000000000208DF8010003208DF80200012025
:101A50008DF803006846FFF777FC0121014800F08C
:101A600012F87FBD0008004021B1028842F08002D8
:101A7000028004E002884FF67F731A4002807047AC
:101A8000CA430282704721B1028842F001020280FB
:101A900004E002884FF6FE731A400280704731B1AD
:101AA000B0F8442042F40042A0F8442005E0B0F829
:101AB0004420C2F30E02A0F84420704730B502461D
:101AC000002000230024158A05EA0103958905EA10
:101AD000010413B10CB1012000E0002030BD1AB1A7
:101AE00083890B43838102E083898B438381704721
:101AF00070B5002400220023058C4FF6FE76354099
:101B00000584028C8388048B4FF68F752C40B51E9C
:101B10002C400D882C43751E2A400D892A434D8880
:101B20002A43144DA8420BD0134DA84208D0134DA0
:101B3000A84205D0124DA84202D0124DA84213D19E
:101B40004FF6F7752A404D892A434FF6FB752A4018
:101B50008D882A434FF6FF652B404FF6FF552B40EB
:101B60008D892B43CD892B4383800483CD88858643
:101B7000028470BD002C014000340140004001404F
:101B800000440140004801400A460021018B4FF605
:101B9000F7731940114301837047000070B50022AC
:101BA00000230024058C4EF6FF7635400584038C17
:101BB0008488828B48F6FF752A404FF6FF452A40FD
:101BC0000D884FF6FF7606EA05252A434DF6FF7588
:101BD0002B400D8906EA05352B434D8806EA05356D
:101BE0002B430B4DA84202D00A4DA84208D14BF618
:101BF000FF752C408D894FF6FF7606EA85152C433C
:101C000084808283CD88A0F84050038470BD00009A
:101C1000002C0140003401400A460021818B4FF224
:101C2000FF7319404FF6FF7303EA022319438183C0
:101C300070470000002202881D4B98420ED01D4BB9
:101C400098420BD0B0F1804F08D01B4B984205D082
:101C50001A4B984202D01A4B984204D14FF68F7318
:101C60001A404B881A43174B984207D0164B98429C
:101C700004D04FF6FF431A40CB881A4302808B886A
:101C800083850B8803850A4B98420BD0094B9842F9
:101C900008D00E4B984205D00D4B984202D00D4B08
:101CA000984201D10B7A038601238382704700009A
:101CB000002C0140003401400004004000080040B6
:101CC000000C0040001000400014004000400140A3
:101CD000004401400048014010B540211C4800F07C
:101CE00051F840F225511A4800F06EF870B31848C8
:101CF00000F026F917490978174A12685054154818
:101D0000007815490968085CEB280AD11248006878
:101D10000078FD2805D100200E4908700120487088
:101D20000DE00D4800680078FD2805D109480078CD
:101D3000401C0849087002E0002006490870054868
:101D40000078132802D900200249087010BD000055
:101D500000380140AC000020B000002010B5402148
:101D6000074800F00FF840F22551054800F02CF824
:101D700020B1034800F0E4F8C4B200BF10BD000079
:101D80000044004001F40072B2F5007F00D100BFB2
:101D9000CA430280704721B1828942F40052828195
:101DA00004E082894DF6FF731A4082817047024633
:101DB0000020B1F5007F00D100BF13880B400BB1AC
:101DC000012000E00020704770B502460024002387
:101DD0000025002040F66A16B14200D100BFC1F3D1
:101DE000421501F01F03012606FA03F3012D02D16B
:101DF0009689334006E0022D02D1168A334001E075
:101E0000968A33400C12012606FA04F416883440F0
:101E100013B10CB1012000E0002070BDF0B5034605
:101E2000002400260025002040F66A17B94200D1A0
:101E300000BF1846C1F3421401F01F06012707FA3C
:101E400006F5012C01D10C3004E0022C01D1103038
:101E500000E014301AB107682F43076002E00768FA
:101E6000AF430760F0BD00002DE9F04786B005469E
:101E70000E460024A24600BFA1460027B08900B14B
:101E800000BF2F462C8A4CF6FF700440F0880443B4
:101E90002C82AC894EF6F3100440B0883189084397
:101EA000718908430443AC81AC8A4FF6FF4004407B
:101EB000B0890443AC8201A8FFF7D6FA1F488742D5
:101EC00002D1DDF810A001E0DDF80CA0A88900F433
:101ED000004040B10AEBCA0000EB0A10316849002B
:101EE000B0FBF1F807E00AEBCA0000EB0A1031681A
:101EF0008900B0FBF1F86420B8FBF0F00401200980
:101F0000642101FB1089A88900F4004040B132200F
:101F100000EBC900B0FBF1F000F00700044308E05B
:101F2000322000EB09106421B0FBF1F000F00F004B
:101F300004432C8106B0BDE8F08700000038014062
:101F400001468888C0F308007047C1F30802828008
:101F50007047000030B5002200231F4C64791F4DEC
:101F6000EC701D4CA5791D4C25711B4CE5791B4C63
:101F70006571194C257A194CA571002006E0164CA4
:101F8000245CE443144D2C54441CE0B20528F6DBD9
:101F9000002009E0104CE478044104F001040CB97D
:101FA000441CE2B2441CE0B20828F3DB002109E043
:101FB000094C24790C4104F001040CB94C1CE3B227
:101FC0004C1CE1B20829F3DB02EB820403EB44046E
:101FD000024DAC7030BD0000AC0200209600002025
:101FE00000BFFEE7014A024900F03AB82128000884
:101FF000CC0000204100080218BF04200A0E18BFC0
:1020000040F001004FF07F4232EA010108BF40F08A
:102010000200012808BF052070470121FEF7F6BA2B
:10202000FEF7A2B800210846FEF728B96FF05E015E
:102030000807FEF7EBBA02E008C8121F08C1002A21
:10204000FAD170477047002001E001C1121F002A39
:10205000FBD170470149086070470000D0000020A4
:102060002DE9F04116460F460446002503E03946A7
:10207000B047641C6D1C20780028F8D12846BDE8C4
:10208000F08100002DE9F041002400250026002702
:10209000012416E0344850F82410601E324A42F8F9
:1020A0002010324850F82410601E304A42F82010A8
:1020B0002F4850F82410601E2D4A42F82010601C52
:1020C000C4B20F2CE6DB2B48B0F90000FEF7F5F99F
:1020D000254988632848B0F90000FEF7EEF9234946
:1020E00088632648B0F90000FEF7E7F920498863C5
:1020F000002416E01C4850F824102846FEF734F857
:1021000005461A4850F824103046FEF72DF80646CA
:10211000174850F824103846FEF726F80746601C8A
:10212000C4B20F2CE6DB16492846FEF7A7F8804616
:10213000FEF7DDF900B20F49088011493046FEF77D
:102140009DF88046FEF7D3F900B20B4908800C4990
:102150003846FEF793F88046FEF7C9F900B2074902
:1021600008800120BDE8F081D4000020100100208B
:102170004C010020080000200A0000200C00002074
:10218000000070412DE9F04104464FF00E4000EB95
:102190004400B0F1506F204655D84FF0FC41B1EBF0
:1021A000440F1CD224F000404FF07E51FEF731F86E
:1021B0004FF0FF31FEF72AFA054601F0BBFA14F0A2
:1021C000004F1DBF2F4F304E80F000402F4F08BFF3
:1021D0002F4E4FF04041FEF71FF8044605E0002760
:1021E0003E460146FEF718F805462A492846FEF7FE
:1021F00013F82949FDF7B8FF2946FEF70DF82749DE
:10220000FDF7B2FF2946FEF707F82549FDF7ACFFB9
:102210002946FEF701F82349FDF7A6FF8046294627
:102220002046FDF7F9FF4146FDF7F6FF054631462A
:102230002046FDF799FF2946FDF796FF3946BDE890
:10224000F041FDF791BF4FF0E441B1EB440F08D9E5
:10225000FFF7D0FE042808BFFFF7E8FE2046BDE8E0
:10226000F0814FF07F41B1EB440F03D2BDE8F04164
:10227000FFF7D3BE0120FFF7EDFEBDE8F041FFF709
:10228000D1BE00000000C9BF22AAFDB90000C93FAD
:1022900022AAFD3924FE1C3DC78AD83C1E67383D62
:1022A0001B93993DAFAA2A3E2DE9F0474FF06842B3
:1022B00002EB40030C460546B3F1654F3CBF02EB11
:1022C0004102B2F1654F7CD2C0F3C753C1F3C7528C
:1022D0009A1A1B2A06DD10F0004F14BF7648774883
:1022E000BDE8F08712F11A0F17DA11F0004F06D08F
:1022F00010F0004F0CBF72487248BDE8F0872146CD
:102300002846FDF7BBFF0446FFF774FE042808BF0C
:10231000FFF78CFE2046BDE8F0874200B2EB410F8C
:1023200025D910F0004F19BF674F684E684F694EAE
:10233000224685F0004415460A4680F000411046CA
:102340000A1A5200B2F1807F40D248406249DFF859
:102350008CA110F0004F18D04FF03F483846FDF7E1
:1023600055FF074651463046FDF750FF17E011F084
:10237000004F04BF00263746E2D010F0004F19BFCF
:10238000574F584E584F594EDAE74FF07C58384661
:10239000FDF7EAFE074651463046FDF7E5FE0646E4
:1023A00041462846FDF738FF2146FDF7DDFE82460F
:1023B00021464046FDF730FF2946FDF72AFF5146EA
:1023C00000E037E0FDF75AFF044604E021462846C6
:1023D000FDF754FF04460146FDF71EFF80464449C1
:1023E000FDF71AFF4349FDF7BFFE4146FDF714FF15
:1023F0004149FDF7B9FE4146FDF70EFF3F49FDF7A4
:10240000B3FE4146FDF708FF3D49FDF7ADFE054629
:1024100041462046FDF700FF2946FDF7FDFE314607
:10242000FDF7A2FE2146FDF79FFE3946BDE8F047C5
:10243000FDF79ABE4FF07F42B2EB400F28BFB2EBE0
:10244000410F03D2BDE8F047FFF7EABD40EA0103C0
:102450005B0008BF44F0FF410AD0B2EB400F08BF59
:10246000B2EB410F06D125F0804024F080410546B3
:102470000C4629E7B2EB400F12BF5FEA410245F07C
:10248000FF4004F000413FF41FAF4A0092EA4003CE
:102490003FF51AAF002AACBF4FF09F464FF03E56B3
:1024A0003146FDF7B9FE054631462046FDF7B4FE3C
:1024B00004462846214607E7DB0FC9BFDB0FC93FAB
:1024C000DB0F4940DB0F49C00000C9BF22AAFDB99C
:1024D0000000C93F22AAFD390060ED3EC30ACE3795
:1024E000000049C022AA7DBA0000494022AA7D3AD4
:1024F0002DAD65BD8FB8D53D0FB511BE61C84C3E41
:10250000A8AAAABE2DE9F04104460D460026294698
:10251000204601F0D7F80746FDF7CFFF19490860BC
:102520000846016818480068FDF71EFE1649086055
:10253000164915480068FEF719F802D213481249E7
:102540000860134910480068FEF706F802D21048E8
:102550000D4908600C4801680E480068FDF75CFEF4
:102560000746084801680C480068FDF755FE80469C
:102570003946FDF7F9FD06463046FDF7B8FFBDE8E0
:10258000F0810000880000207000002000504347C8
:10259000005043C77C000020780000202DE9F04166
:1025A00004460949C868FDF788FF07462146FDF73C
:1025B00030FE0646054801683046FDF72DFE05460B
:1025C000FDF795FFBDE8F081A0010020800000200C
:1025D00070B511210C48FEF7D9FA05460A48407C2F
:1025E000A84201D001240DE0012008498870002094
:1025F0008880074804498A680260CA684260097C8A
:1026000001720024204670BDD50200208C000020FD
:10261000AC0200202DE9F0470024002500264348A5
:10262000006801F0D3F90446414A51681068FFF789
:1026300069FF05463F480068FDF73FFF8146FFF709
:10264000ADFF06463C48807898B93C48408840F247
:10265000DC51884206DD6019801B3549086060192D
:1026600048601BE06019324908606019801B4860AF
:1026700014E031488078012810D13148407964282D
:1026800006DD6019801B2A4908606019486005E072
:102690006019274908606019801B48602449086850
:1026A00041F2707100F0A4FC21490860486841F2D1
:1026B000707100F09DFC1E4948600A46928811B274
:1026C0001B4A128810B200F09BFC194800881FFAC0
:1026D00080F81748808887B215480068002804DA17
:1026E0001348008840421FFA80F8114840680028CB
:1026F00003DA0F488088404287B2404600F0DCFE93
:102700001FFA80F8384600F0D7FE87B2404600F046
:1027100069FC1FFA80F8384600F064FC87B239463D
:10272000404600F085FFBDE8F08700001C00002057
:10273000A0010020540000208C0000200002002096
:102740009600002005480088142803DA044805494B
:10275000886002E00020034988607047A0000020E4
:102760000000FAC4A001002008B501210820FEF7EE
:102770005BFE03208DF8020010208DF8030040203E
:10278000ADF8000069460948FEF710FA28208DF8D8
:1027900003008020ADF8000069460448FEF706FA01
:1027A000472140F2E730FFF72FF908BD000C014048
:1027B000014642F228324A434FF0E0235A61012297
:1027C0001A6100229A6100BF4FF0E022106900F008
:1027D00001021AB100F48032002AF5D000224FF035
:1027E000E0231A619A617047014601EBC1024FF084
:1027F000E0235A6101221A6100229A6100BF4FF062
:10280000E022106900F001021AB100F48032002ABF
:10281000F5D000224FF0E0231A619A617047000062
:1028200070B504460D46E1B20548FFF78EFB00BFC8
:1028300080210348FFF7BBFA0028F9D0204670BD7D
:10284000004400400E480088642803DD00200D4944
:10285000886070470A480088142803DA0A48094942
:102860008860F6E706480088192803DD074805490F
:102870008860EEE700200349886000BFE9E70000B8
:10288000A0000020A00100200080BBC40080BB4449
:1028900000B585B001218805FEF7A6FD01210820BD
:1028A000FEF7C2FD4FF44060ADF8000003208DF844
:1028B00002001C208DF8030069461348FEF776F9E4
:1028C0001248FEF7A7FA0020ADF808004BF6FF709B
:1028D000ADF80A003020ADF80C004FF48060ADF880
:1028E0000E000001ADF810000948019001210748D1
:1028F000FEF784FA01A90548FEF7C0FA0121034852
:10290000FEF75BFA05B000BD000C01400058004026
:10291000400D03002DE9F04704460D4616461F46BC
:10292000DDF820804FF0010A76E001213F48FEF7F4
:102930008DFA00BF3E493D48FEF74BFA0028F9D01A
:10294000002239463948FEF713FB00BF39493748A2
:10295000FEF73FFA0028F9D031463448FEF711FB64
:1029600000BF3449891C3148FEF733FA0028F8D0FB
:10297000B8F1000F18D1A9460AE014F8011B2B4842
:10298000FEF7FFFA00BF2B49891C2848FEF721FA01
:10299000B9F10000A9F1010101F0FF09EDD1012118
:1029A0002248FEF75FFA37E001212048FEF74EFA91
:1029B00000BF1F491D48FEF70CFA0028F9D001227C
:1029C00039461A48FEF7D4FA00BF1949491C17487E
:1029D000FEF7FFF90028F8D018E0012D07D10021FB
:1029E0001248FEF7EAF901211048FEF73BFA00BF52
:1029F0000F493F310D48FEF7ECF90028F8D00B489D
:102A0000FEF7B2FA2070641C681EC5B2002DE4D136
:102A100001210648FEF7D1F9BAF10000AAF101013F
:102A200001F0FF0A81D1BDE8F087000000580040A6
:102A300001000300820007000FB400B595B04FF00D
:102A40007C501C99FDF7E8FB0C901998FE49079003
:102A5000FDF7E2FB19901A98FB490790FDF7DCFBA4
:102A60001A901B98F8490790FDF7D6FB1B90169813
:102A700000210790FDF770FD0BD1179800210790FA
:102A8000FDF76AFD05D1189800210790FDF764FD58
:102A90007ED01898049001460390FDF7BDFB069088
:102AA0001798029001460190FDF7B6FB0490169826
:102AB000029001460190FDF7AFFB03900499FDF7EA
:102AC00053FB05900699FDF74FFB079000F064FA61
:102AD0001490169807901499FDF79EFB169017987E
:102AE00007901499FDF798FB179018980790149980
:102AF000FDF792FB189018980590D4480168059846
:102B0000FDF78AFB079017980590D1480168059852
:102B1000FDF782FB06900799FDF778FB1390169856
:102B20000590CB4801680598FDF776FB079018984B
:102B30000590C84801680598FDF76EFB0690079957
:102B4000FDF764FB129017980590C248016805983C
:102B5000FDF762FB079016980590BC480168059840
:102B6000FDF75AFB06900799FDF750FB1190BA4804
:102B700013990068FDF750FB06901C99FDF74CFB7C
:102B80000790B64801680798FDF7EEFAB34900E0F0
:102B90005BE00860B04812990068FDF73DFB0690C5
:102BA0001C99FDF739FB0790AD4801680798FDF7C0
:102BB000DBFAAB490860A84811990068FDF72CFBC7
:102BC00006901C99FDF728FB0790A6480168079816
:102BD000FDF7CAFAA3490860A34813990068FDF7F6
:102BE0001BFB06909D4801680698FDF7BDFA07900B
:102BF0001998014606900798FDF7B6FA19909A4879
:102C000012990068FDF708FB069095480168069840
:102C1000FDF7AAFA07901A98014606900798FDF763
:102C2000A3FA1A90904811990068FDF7F5FA0690FA
:102C30008C4801680698FDF797FA07901B980146A3
:102C400006900798FDF790FA1B90884800680B9053
:102C5000874800680A90874800680990864800689D
:102C600008901B98014603900898FDF7D5FA059047
:102C70001A98014601900998FDF7CEFA03900A9838
:102C800080F0004001901998014600900198FDF7EE
:102C9000C3FA02900399FDF7B9FA04900599FDF77C
:102CA000B5FA06900C99FDF7B7FA07906F480168DE
:102CB0000798FDF759FA6D4908601A980146039084
:102CC0000898FDF7A9FA05901B980146019009980C
:102CD000FDF7A2FA03901998014601900B98FDF7B1
:102CE0009BFA02900399FDF73FFA04900599FDF7CE
:102CF0008DFA06900C99FDF78FFA07905C480168F1
:102D00000798FDF731FA5A4908601998014603906F
:102D10000898FDF781FA05901B98014601900A98E2
:102D2000FDF77AFA03901A98014601900B98FDF787
:102D300073FA02900399FDF769FA04900599FDF77B
:102D400013FA06900C99FDF767FA07904948016855
:102D50000798FDF709FA474908601998014603905A
:102D60000998FDF759FA05901A98014601900A98BA
:102D7000FDF752FA03901B98014601900B98FDF75E
:102D80004BFA02900399FDF7EFF904900599FDF7CE
:102D90003DFA06900C99FDF73FFA07903648016816
:102DA0000798FDF7E1F934490860084601680068B2
:102DB000FDF732FA06902F4801680068FDF72CFAFB
:102DC00004902B4801680068FDF726FA0290274816
:102DD00001680068FDF720FA01900299FDF7C4F937
:102DE00003900499FDF7C0F905900699FDF7BCF929
:102DF000079000F0D1F814901C4814990068FDF772
:102E00000BFA1A4908601A4814990068FDF704FA89
:102E100017490860174814990068FDF7FDF915492E
:102E20000860154814990068FDF7F6F91249086022
:102E30000E4801680068FDF7EFF910900C48016832
:102E40000068FDF7E9F919E035FA8E3C68000020CA
:102E50006C00002064000020280000202C000020CE
:102E60003000002034000020240000203800002022
:102E70003C00002040000020440000200F903B4810
:102E800001680068FDF7C8F90E90394801680068CC
:102E9000FDF7C2F90D903548016836480068FDF726
:102EA000BBF906903248016833480068FDF7B4F971
:102EB00005900699FDF7AAF94FF080410790FDF7BC
:102EC000ABF92E4908602A48016828480068FDF7D8
:102ED000A3F906902848016826480068FDF79CF988
:102EE00005900699FDF740F94FF080410790FDF7F6
:102EF00093F923490860DDE90F10FDF787F9069083
:102F00000E99FDF783F907900D99FDF72DF91D49ED
:102F100008604FF07E5119480068FDF727FB03D287
:102F20004FF07E5115480160174914480068FDF7BD
:102F300013FB02D214491148016010480068FFF7E2
:102F400021F912490790FDF767F9114908600D480A
:102F500001680B480068FFF7A7F90C490790FDF7D7
:102F60005BF90C49086015B05DF814FB40000020C7
:102F700044000020380000203C00002064000020B5
:102F8000680000206C000020000080BFE12E654238
:102F90001C000020200000202DE9F04704464FF0DF
:102FA0007C512046FDF738F9814625462E460C48CF
:102FB000A0EB6606354629464846FDF72DF98246C0
:102FC0002946FDF729F980464FF07F51FDF721F999
:102FD00007462946FDF720F905462846BDE8F08753
:102FE000DF59375FB0F5803F01DB4FF6FF70704768
:102FF000884200DB08464A42904200DC4842704763
:10300000002801DC012200E0002282F00102054BD1
:103010001A60002901DC012200E00022024B1A6044
:1030200070470000808121429401214286B00A2429
:103030000E214320FDF7BEFF04214120FDF7BAFF1A
:103040000120B64908604FF4165000F045FA4FF4DD
:103050007A3000F099FAFFF71BFC6420FFF7A8FB19
:10306000AFA0FEF7BFFF00F0E0F9FDF735FDFDF77B
:103070008BFFFDF791FB0120FDF784FBFFF774FB4D
:10308000FEF77CF80AE0A548006808B9012000E0D6
:103090000020A24908603220FFF78AFB201EA4F11D
:1030A0000101CCB2EFD19D490860A0A0FEF79AFFC4
:1030B0000120A449887030E100250A20FFF778FB41
:1030C000A0488088401C9F498880FEF737FA28B9BD
:1030D00000209C49887088800120C8809A484078E8
:1030E000012819D197498870002088800120C88064
:1030F000002095494870FFF76BFAFEF72BFF9348C5
:103100008078012801D18F49C870904880780228C2
:1031100002D100208B49C8708A4880880A2803DBC6
:10312000002088498880C8808648C08801282BD123
:103130000020874908608348807878B985494988A4
:10314000A1F2DC518800FDF7B8F983498860814815
:103150000088A0F2DC508000C8602AE079488078BE
:10316000012826D179494979643901EB8101880028
:10317000FDF7A3F97849886074488079643800EBDA
:1031800080008000C86014E06E48807828B940F262
:10319000DC5070494880088007E06A488078012840
:1031A00003D164206B494880088000206A49C860C8
:1031B000C86000F019FB694969480068FDF72CF800
:1031C0008046FDF794F906B2644965480068FDF74A
:1031D00023F88046FDF78BF907B20A20642100220C
:1031E000CDE9012613460092CDE9031002460146BF
:1031F000384600F036FC5B48007858B15A495B48C5
:103200000068FDF7B3F905D3594958480068FDF740
:10321000A3F90ED253480078012806D10020514965
:1032200008703E490860FDF79FFC0120FDF7AAFAEF
:1032300004E0FFF7EFF90020FDF7A4FA4D4800681D
:103240000A21B0FBF1F201FB1200A0B900F0A8FBCB
:103250000546012D0FD14348007828B90120414986
:1032600008702E49086006E000203E4908702B498E
:103270000860FDF779FC3F4800680A21B0FBF1F2D5
:1032800001FB1200C8B93C48007810B93B480078EF
:1032900020B100F065FA3A49088002E0322038494E
:1032A000088035480078012801D1FFF74BFA3348F0
:1032B0000078012801D1FFF7C5FA2E480068642183
:1032C000B0FBF1F201FB1200C8B900F051FB2D4830
:1032D000008841F65831884211DA2A48008888422D
:1032E0000DDA2848008841F28831884207DD0B4812
:1032F000006808B9012000E00020084908601D4866
:103300000068B0F5C87F02D300201A490860194848
:103310000068401C1749086000BFCDE690012142BB
:10332000B3F5CABCBBAF4D50550D0A00C6BDBAE2DD
:10333000B3B5D3B2BCFEB3F5CABCBBAFCDEAB3C91B
:103340000D0A00008C000020AC0000209600002038
:103350007000002000020020A00100200000C842F0
:103360002000002000000020000034421C0000204B
:10337000000034C2040000208400002085000020EA
:10338000A0000020B40000202DE9F04786B00446DC
:103390000D4616461F46DDE90F9ADDF838800120FC
:1033A000D0233B220E21009002A8FFF7B3FA9DF82C
:1033B00009109DF8080001EB002000B238809DF84C
:1033C0000B109DF80A0001EB002000B2A8F80000E5
:1033D0009DF80D109DF80C0001EB002000B2A9F83B
:1033E00000009DF80F109DF80E0001EB002000B2C8
:1033F000AAF800009DF811109DF8100001EB0020C4
:1034000000B220809DF813109DF8120001EB0020FF
:1034100000B228809DF815109DF8140001EB0020E3
:1034200000B2308006B0BDE8F0871CB500200190E6
:10343000022001900020D02337220121009001A812
:10344000FFF768FA00200190D0236A220121009042
:1034500001A8FFF75FFA00200190D0236B22012121
:10346000009001A8FFF756FA00200190D0236C22AB
:103470000121009001A8FFF74DFA062001900020DD
:10348000D0231A220121009001A8FFF743FA182047
:1034900001900020D0231B220121009001A8FFF7FA
:1034A00039FA082001900020D0231C22012100902D
:1034B00001A8FFF72FFA1CBD0146002900DA494296
:1034C000044890FBF1F24FF6FF70824200DB704738
:1034D0001046FCE740420F0010B586B004460121BB
:1034E00044F20500FDF7A0FF4FF40070ADF81400A2
:1034F00003208DF8160018208DF8170005A9204824
:10350000FDF754FB4FF48060ADF8140048208DF8AF
:10351000170005A91A48FDF749FB4FF4C060FDF7F5
:103520004BFF25208DF8100000208DF811000120A0
:103530008DF812008DF8130004A8FDF705FF009424
:103540000020ADF80400ADF80600ADF80800ADF8B5
:103550000C000C20ADF80A0069460A48FEF784FC0E
:1035600001210848FEF717FC012240F225510548C9
:10357000FEF754FC40210348FEF704FC06B010BDE2
:10358000000801400038014010B586B00446012112
:103590000420FDF749FF01214804FDF725FF08201D
:1035A000ADF8000048208DF8030069461E48FDF77D
:1035B000FDFA0420ADF8000003208DF80200182069
:1035C0008DF8030069461848FDF7F0FA02940020D0
:1035D000ADF80C00ADF80E00ADF81000ADF8140019
:1035E0000C20ADF8120002A91048FEF73DFC0122A4
:1035F00040F225510D48FEF711FC01210B48FEF762
:10360000CAFB4FF4E060FDF7D7FE26208DF80400DA
:1036100000208DF8060001208DF8070001A8FDF7B5
:1036200093FE06B010BD00000008014000440040B9
:1036300030B587B005460C46681E80B2ADF8140060
:103640001D20ADF810000020ADF81600ADF81200F6
:1036500004A91A48FEF7EEFA6020ADF80000012038
:10366000ADF802000020ADF808006810ADF80600C3
:1036700069461248FEF73CFA601E80B2ADF81400AD
:103680001D20ADF810000020ADF81600ADF81200B6
:1036900004A90B48FEF7CEFA6020ADF80000012027
:1036A000ADF802000020ADF808006010ADF806008B
:1036B00069460348FEF772FA07B030BD00040040C7
:1036C000002C01402DE9F04705460E460024002756
:1036D000012408E0164850F82420601E144941F8DF
:1036E0002020601CC4B2142CF4DB05EB060808EBA8
:1036F000D8714810FCF7E1FE82460D481038816809
:103700005046FCF783FD8146FCF7F1FE084910396D
:10371000C865002405E0064850F824000744601CF2
:10372000C4B2142CF7DB142097FBF0F0BDE8F0874F
:10373000B001002070B50546FCF7F4FF044620F008
:103740000040C0F1FF40C00F08D025F00040C0F19C
:10375000FF40C00F04BF0120FEF77CFC204670BD77
:1037600070B500BF00BF01201B4908600F20FFF7A4
:103770003BF800201949C1F8980100BF16487C3871
:1037800000680028FAD001211548FEF77CF900BF37
:1037900011487C3800680128FAD000211048FEF753
:1037A00072F90F48243005880E48006800EB40018C
:1037B000C1EBC01005EBC0003221B0FBF1F4B4F551
:1037C000AD7F01D340F2591400200549243108800F
:1037D00004490860A0B270BD988121420080214256
:1037E00000040040A4000020FEB550485049514A52
:1037F000514BCDE900210290504A51495148FFF701
:10380000C3FDFEF73FFC4F4800880C3800B24D491D
:1038100008804B4800880A3800B249490880474868
:103820000088C01D00B2454908804348B0F9000037
:10383000FCF74CFE06460022434BFCF7CFFD044646
:10384000FCF76EFE414908603A48B0F90000FCF709
:103850003DFE064600223C4BFCF7C0FD0446FCF74B
:103860005FFE3A4948603248B0F90000FCF72EFE8E
:1038700006460022344BFCF7B1FD0446FCF750FE2F
:10388000324988602F48B0F90000FCF71FFE064659
:103890002F4A304BFCF730FD0446FCF741FE2E4921
:1038A00008602748B0F90000FCF710FE0646284AD9
:1038B000284BFCF721FD0446FCF732FE2649486000
:1038C0001E48B0F90000FCF701FE0646204A214BD5
:1038D000FCF712FD0446FCF723FE1F4988600868C8
:1038E000FCF705FE1D4908601B494868FCF7FFFD11
:1038F0001B49086018498868FCF7F9FD19490860F8
:10390000194815490290D1E90101CDE90001124899
:1039100003680E4807C8FFF78FF8002113480068B6
:10392000FCF774FC11490860FEBD00006000002037
:103930000C0000200A0000200800002012000020D7
:10394000100000200E0000200000D0408801002060
:103950008048BF7D1D38AF3F940100204C000020FF
:1039600050000020540000200AD7233C20000020F3
:1039700010B514210020FDF709FA044640F6E44191
:1039800004FB01F0C11700EB1151C1F30F344FF6E6
:10399000FF7101EA44000149088010BDB400002015
:1039A00010B50948006860B90A20FEF701FF064813
:1039B000006830B900BF044800680028FBD001202F
:1039C00010BD0020FCE700000401214270B5044650
:1039D0000025054801682046FCF71EFC0646FCF75A
:1039E00086FD0546284670BD74000020F0B589B0FC
:1039F00006460F4615461C2D01DD09B0F0BD00211D
:103A000001AAE81C115488208DF804008DF8056087
:103A10008DF80650002405E0395DE01C01AA115420
:103A2000601CC4B2AC42F7DB00240AE001A9E81C28
:103A3000085C095D0844C1B201AAE81C1154601C6D
:103A4000C4B2E81C8442F1DB002405E001A9085D52
:103A500000F068F8601CC4B2281D8442F6DB00BF89
:103A6000CBE72DE9F04F87B004460D4616461F46BA
:103A7000DDE911ABDDF840904FF0000806E00020D2
:103A80000DF8080008F1010000F0FF08B8F11C0F64
:103A9000F5DB200A8DF80000E0B28DF80100280A5D
:103AA0008DF80200E8B28DF80300300A8DF80400AA
:103AB000F0B28DF80500380A8DF80600F8B28DF8DE
:103AC00007004FEA19208DF8080009F0FF008DF873
:103AD00009004FEA1A208DF80A000AF0FF008DF85D
:103AE0000B004FEA1B208DF812000BF0FF008DF841
:103AF00013001398000A8DF814001398C0B28DF8C3
:103B000015001498000A8DF816001498C0B28DF8AC
:103B100017001C226946AF20FFF768FF07B0BDE819
:103B2000F08F000010B5044621460548FEF70DFA57
:103B300000BF80210248FEF73AF90028F9D010BDF5
:103B400000440040112233445511223344550000F3
:103B5000703B000800000020D40000003620000860
:103B6000443C0008D4000020140600004620000851
:103B70000000000000000000000000000000000045
:103B80000000000000000000000000000000000035
:103B900000000000CDCC4C3F6F12833A00000000C3
:103BA00000000000000000000000803F0000000056
:103BB0000000000000000000000000000000000005
:103BC00000000000000000000000000000000000F5
:103BD00000000000000000000000000000000000E5
:103BE0000000000000009B430000C03F6F12833ABA
:103BF0009A99993F000000000000000000000000BA
:103C000000000000000000000000000000000000B4
:103C100000000000000000000000000000000000A4
:103C2000D502002000000000000001020304010290
:103C3000030406070809020406080000000000004B
:043C40000000000080
:0400000508000131BD
:00000001FF
